:100000000C942A000C943F000C943F000C943F0089
:100010000C943F000C943F000C943F000C943F0064
:100020000C943F000C943F000C943F000C943F0054
:100030000C943F000C943F000C943F000C943F0044
:100040000C943F000C943F000C943F000C943F0034
:100050000C943F0011241FBECFE5D4E0DEBFCDBF1E
:1000600010E0A0E6B0E0EAE6F0E102C005900D92F3
:10007000A63AB107D9F70E9421010C9433080C94D9
:10008000000080FF02C0C29A01C0C29881FF02C076
:10009000C39A01C0C39882FF02C0C49A01C0C49829
:1000A00083FF02C0C59A0895C59808951F93182F1D
:1000B000C19A82958F700E944100C198C19A812F88
:1000C0000E944100C19880E18A95F1F71F9108953F
:1000D000C0980E9456000895C09A0E945600089544
:1000E000CF93DF93EC0103C021960E946C008881BE
:1000F0008823D1F7DF91CF9108956295660F660F3F
:10010000607C680F862F80680E946800089581E0F7
:100110000E94680084EF91E00197F1F7089582E072
:100120000E94680084EF91E00197F1F708951F9312
:10013000CF93DF93BA9ABB9ABC9ABD9AB99AB89AF0
:1001400086EA9EE00197F1F7C098C19810E0C2EEF0
:10015000D4E0C19A83E00E944100C198CE0101978A
:10016000F1F71F5F1330A9F7C19A82E00E944100A6
:10017000C1988AEF90E00197F1F788E20E94680049
:1001800088E00E94680081E00E94680084EF91E0AE
:100190000197F1F786E00E9468008CE00E946800F9
:1001A000DF91CF911F9108959C0153E0880F991F13
:1001B0005A95E1F7220F331F820F931F680F791FA3
:1001C000CB01089540E050E0A1E0B0E025B34C5FE2
:1001D0005F4FCD01042E02C0880F991F0A94E2F7E9
:1001E00044505040E82F8095822385BB20E030E0CA
:1001F00083B390E0022E02C0959587950A94E2F7AA
:10020000B9016F5F7F4F80FD0CC088E893E10197D3
:10021000F1F79A01220F331F220F331F260F371FCA
:100220000EC09B016430710519F785B3E82BE5BB5F
:100230004F5F5F4F4430510549F620E030E0C9017F
:1002400008952F923F924F925F926F927F928F927A
:100250009F92AF92BF92CF92DF92EF92FF920F9355
:100260001F93DF93CF93CDB7DEB765970FB6F894A2
:10027000DEBF0FBECDBF40E050E061E070E034B3C0
:10028000CB01042E02C0880F991F0A94E2F7282F91
:100290002095232324BB25B3822B85BB24B34C5F3D
:1002A0005F4FCB01042E02C0880F991F0A94E2F71A
:1002B000282B24BB25B3822B85BB435050404430B0
:1002C0005105E9F60E9497000E948F0080E28D8B15
:1002D000CC24CA94DC2C00E010E066246A94762CCE
:1002E000EE24FF245E010894A11CB11C3BE6832E82
:1002F00030E0932E22242A94322C23E8422E20E050
:10030000522E0E94870080E060E00E947D0000D0B5
:1003100000D000D0EDB7FEB73196ADB7BEB712969C
:10032000BC92AE92119780E690E093838283F5822F
:10033000E4820E945B05ADB7BEB716960FB6F8947F
:10034000BEBF0FBEADBFC5010E94700080E061E07E
:100350000E947D000E94E200FC01009709F49BC30B
:10036000EB56FF4F8081843309F4FDC08533D8F408
:10037000813379F1823380F48D3209F40FC38E32E8
:1003800038F48A3209F4ECC28B3209F07DC3C1C261
:10039000803309F079C361C2823309F459C08333D1
:1003A00009F072C3A1C0883309F4D9C1893338F484
:1003B000863309F456C1873308F092C113C18D33D7
:1003C00009F415C3833409F483C2893309F05CC38B
:1003D00005C2BFEFCB16BFEFDB06E9F400D000D0BB
:1003E00000D0EDB7FEB73196ADB7BEB71296BC924E
:1003F000AE9211979382828281E090E0958384830C
:100400000E945B0591E0C92ED12C01E010E081E053
:10041000E82EF12C3EC0C801B3E0880F991FBA95B1
:10042000E1F7000F111F080F191F0F5F1F4F00D0BA
:1004300000D000D0EDB7FEB73196ADB7BEB712967B
:10044000BC92AE9211979382828281E090E046C086
:10045000BFEFCB16BFEFDB0629F500D000D000D0F0
:10046000EDB7FEB73196ADB7BEB71296BC92AE925D
:1004700011979382828282E090E0958384830E9428
:100480005B05F1E0CF2ED12C02E010E0E2E0EE2E91
:10049000F12CADB7BEB716960FB6F894BEBF0FBE1F
:1004A000ADBFF2C2C80173E0880F991F7A95E1F7DA
:1004B000000F111F080F191F0E5F1F4F00D000D033
:1004C00000D0EDB7FEB73196ADB7BEB71296BC926D
:1004D000AE9211979382828282E090E0958384832A
:1004E0000E945B057801D5CFBFEFCB16BFEFDB06CF
:1004F000E9F400D000D000D0EDB7FEB73196ADB72B
:10050000BEB71296BC92AE9211979382828283E01C
:1005100090E0958384830E945B0551E0C52ED12C29
:1005200003E010E043E0E42EF12CB3CFC80133E048
:10053000880F991F3A95E1F7000F111F080F191F37
:100540000D5F1F4F00D000D000D0EDB7FEB7319641
:10055000ADB7BEB71296BC92AE92119793828282CB
:1005600083E090E0BBCFBFEFCB16BFEFDB06E9F433
:1005700000D000D000D0EDB7FEB73196ADB7BEB712
:100580001296BC92AE9211979382828284E090E0A0
:10059000958384830E945B0591E0C92ED12C04E0F1
:1005A00010E084E0E82EF12C74CFC801B3E0880F8E
:1005B000991FBA95E1F7000F111F080F191F0C5F63
:1005C0001F4F00D000D000D0EDB7FEB73196ADB7C9
:1005D000BEB71296BC92AE9211979382828284E04B
:1005E00090E07CCFBFEFCB16BFEFDB06E9F400D085
:1005F00000D000D0EDB7FEB73196ADB7BEB71296BA
:10060000BC92AE9211979382828285E090E09583AE
:1006100084830E945B05F1E0CF2ED12C05E010E031
:10062000E5E0EE2EF12C35CFC80173E0880F991F5D
:100630007A95E1F7000F111F080F191F0B5F1F4F6D
:1006400000D000D000D0EDB7FEB73196ADB7BEB741
:100650001296BC92AE9211979382828285E090E0CE
:100660003DCFBFEFCB16BFEFDB06E9F400D000D0E3
:1006700000D0EDB7FEB73196ADB7BEB71296BC92BB
:10068000AE9211979382828286E090E09583848374
:100690000E945B0551E0C52ED12C06E010E046E03B
:1006A000E42EF12CF6CEC80133E0880F991F3A955D
:1006B000E1F7000F111F080F191F0A5F1F4F00D02D
:1006C00000D000D0EDB7FEB73196ADB7BEB71296E9
:1006D000BC92AE9211979382828286E090E0FECE29
:1006E000BFEFCB16BFEFDB06E9F400D000D000D09F
:1006F000EDB7FEB73196ADB7BEB71296BC92AE92CB
:1007000011979382828287E090E0958384830E9490
:100710005B0591E0C92ED12C07E010E087E0E82EC0
:10072000F12CB7CEC801B3E0880F991FBA95E1F755
:10073000000F111F080F191F095F1F4F00D000D0B5
:1007400000D0EDB7FEB73196ADB7BEB71296BC92EA
:10075000AE9211979382828287E090E0BFCEBFEF86
:10076000CB16BFEFDB06E9F400D000D000D0EDB728
:10077000FEB73196ADB7BEB71296BC92AE92119746
:100780009382828288E090E0958384830E945B0557
:10079000F1E0CF2ED12C08E010E0E8E0EE2EF12CB5
:1007A00078CEC80173E0880F991F7A95E1F7000FA2
:1007B000111F080F191F085F1F4F00D000D000D075
:1007C000EDB7FEB73196ADB7BEB71296BC92AE92FA
:1007D00011979382828288E090E080CEBFEFCB16A3
:1007E000BFEFDB06E9F400D000D000D0EDB7FEB7D4
:1007F0003196ADB7BEB71296BC92AE921197938266
:10080000828289E090E0958384830E945B0551E0B9
:10081000C52ED12C09E010E049E0E42EF12C39CEB0
:10082000C80133E0880F991F3A95E1F7000F111FB7
:10083000080F191F075F1F4F00D000D000D0EDB781
:10084000FEB73196ADB7BEB71296BC92AE92119775
:100850009382828289E090E041CEBFEFCB16BFEF5A
:10086000DB06C1F400D000D000D0EDB7FEB7319662
:10087000ADB7BEB71296BC92AE92119793828282A8
:10088000158214820E945B05B1E0CB2ED12C00E0D2
:1008900010E0F2C0C801880F991FF3E0000F111F8C
:1008A000FA95E1F7080F191F00D000D000D0EDB77E
:1008B000FEB73196ADB7BEB71296BC92AE92119705
:1008C00093828282158214820E945B057801D4C0D3
:1008D00000D000D000D0EDB7FEB73196ADB7BEB7AF
:1008E0001296BC92AE92119787E790E09383828331
:1008F000A3E4B0E0B583A4830E945B05CC24CA9432
:10090000DC2C00E010E066246A94762CEE24FF24B0
:10091000B3C0ADB7BEB71A970FB6F894BEBF0FBE3F
:10092000ADBFEDB7FEB731961296BC92AE9211975D
:10093000538242828BE290E09583848317830683FF
:10094000318620860E945B053801BBE2BD8BCC243A
:10095000CA94DC2C00E010E08DB79EB70A968FC0D9
:10096000ADB7BEB71A970FB6F894BEBF0FBEADBFF6
:10097000EDB7FEB731961296BC92AE9211975382A4
:1009800042828AE290E095838483178306833186CE
:1009900020860E945B0538019AE21FC08DB79EB782
:1009A0000A970FB6F8949EBF0FBE8DBFEDB7FEB786
:1009B0003196ADB7BEB71296BC92AE9211975382E4
:1009C00042828DE290E0958384831783068331868B
:1009D00020860E945B0538019DE29D8BCC24CA9441
:1009E000DC2C00E010E0ADB7BEB71A9655CDBD893E
:1009F000BB3249F48FEF68168FEF7806F9F0730178
:100A0000E00EF11E1BC09D899A3269F4AFEF6A16A1
:100A1000AFEF7A0699F0609E7001619EF00C709EB7
:100A2000F00C11240BC0BD89BD3241F48FEF681664
:100A30008FEF780619F07301E01AF10A00D000D0A8
:100A400000D0EDB7FEB73196ADB7BEB71296BC92E7
:100A5000AE92119787E790E093838283ADE3B0E095
:100A6000B583A4830E945B05CC24CA94DC2C00E0EF
:100A700010E066246A94762C8DB79EB706960FB662
:100A8000F8949EBF0FBE8DBFC5010E94700080E527
:100A900093EC0197F1F780E593EC02C088EA91E6C8
:100AA0000197F1F7989BFACF999BF8CF9A9BF6CFD5
:100AB0009B9927CCF3CFAEE0B0E0E1E6F5E00C94F3
:100AC0000A080D891E8986E08C831A8309838FEFBB
:100AD0009FE79E838D839E01275E3F4FCE01019647
:100AE0006F89788DA9010E947F052F813885020FBB
:100AF000131FF80110822E96E4E00C942608ABE058
:100B0000B0E0E5E8F5E00C94FC073C012B015A014C
:100B1000FC0117821682838181FD03C06FEF7FEF96
:100B2000C6C19AE0892E1E010894211C311CF301D4
:100B30002381F20123FD859123FF81912F018823D9
:100B400009F4B2C1853239F423FD859123FF8191E7
:100B50002F01853229F490E0B3010E947207E7CF9C
:100B6000982FFF24EE249924FFE1FF15D0F09B324B
:100B700069F09C3228F4903259F0933291F40EC00F
:100B80009D3249F0903369F441E024C052E0F52AE7
:100B900084E0F82A28C098E0F92A25C0E0E1FE2A7E
:100BA00022C0F7FC29C0892F80538A3070F4F6FEEA
:100BB00005C0989C902C1124980E15C0E89CE02C40
:100BC0001124E80EF0E2FF2A0EC09E3229F4F6FC52
:100BD0006BC140E4F42A07C09C3619F450E8F52AAA
:100BE00002C0983649F4F20123FD959123FF9191BB
:100BF0002F01992309F0B8CF892F8554833018F03D
:100C00008052833038F444E050E0A40EB51E5FE318
:100C100059830FC0933631F0933779F0933509F04B
:100C200056C020C0F5018081898342E050E0A40EC7
:100C3000B51E610101E010E012C0F501C080D18055
:100C4000F6FC03C06FEF7FEF02C0692D70E042E059
:100C500050E0A40EB51EC6010E9467078C015FE735
:100C6000F52214C0F501C080D180F6FC03C06FEFFF
:100C70007FEF02C0692D70E042E050E0A40EB51E87
:100C8000C6010E945C078C0150E8F52AF3FE07C0FC
:100C90001AC080E290E0B3010E947207EA948E2DA0
:100CA00090E008171907A8F30EC0F601F7FC85912C
:100CB000F7FE81916F0190E0B3010E947207E1108D
:100CC000EA94015010400115110579F7EAC09436F5
:100CD00011F0993669F5F7FE08C0F50120813181E0
:100CE0004281538184E090E00AC0F50180819181C6
:100CF0009C01442737FD4095542F82E090E0A80ED8
:100D0000B91E9FE6F92257FF09C0509540953095CE
:100D100021953F4F4F4F5F4FE0E8FE2ACA01B901CE
:100D2000A1012AE030E00E949E07D82ED21840C0D0
:100D3000953729F41F2D1F7E2AE030E01DC01F2D9E
:100D4000197F9F3661F0903720F4983509F0ACC0D8
:100D50000FC0903739F0983709F0A6C004C028E0DA
:100D600030E00AC0106114FD146020E130E004C0DE
:100D700014FD166020E132E017FF08C0F501608124
:100D800071818281938144E050E008C0F501808147
:100D90009181BC0180E090E042E050E0A40EB51EDD
:100DA000A1010E949E07D82ED2188FE7F82EF122BB
:100DB000F6FE0BC05EEFF522D91438F4F4FE07C03E
:100DC000F2FC05C08FEEF82202C01D2D01C0192DC6
:100DD000F4FE0DC0FE01ED0DF11D8081803319F48C
:100DE00099EEF92208C01F5FF2FE05C003C08F2DE7
:100DF000867809F01F5F0F2DF3FC14C0F0FE0FC0C2
:100E00001E1510F09D2C0BC09D2C9E0C911A1E2DB2
:100E100006C080E290E0B3010E9472071F5F1E15BA
:100E2000C0F304C01E1510F4E11A01C0EE2404FF43
:100E30000FC080E390E0B3010E94720702FF1DC063
:100E400001FD03C088E790E00EC088E590E00BC08C
:100E5000802F867891F001FF02C08BE201C080E212
:100E6000F7FC8DE290E0B3010E94720706C080E3B8
:100E700090E0B3010E9472079A94D914C0F3DA94F7
:100E8000F101ED0DF11D808190E0B3010E94720728
:100E9000DD20A9F706C080E290E0B3010E9472074E
:100EA000EA94EE20C1F743CEF30166817781CB014E
:100EB0002B96E2E10C941808FC01059061507040FB
:100EC0000110D8F7809590958E0F9F1F0895FC0113
:100ED0006150704001900110D8F7809590958E0F69
:100EE0009F1F08950F931F93CF93DF938C01EB0106
:100EF0008B8181FF1BC082FF0DC02E813F818C81C1
:100F00009D812817390764F4E881F9810193F983F9
:100F1000E88306C0E885F985802F0995892B31F48F
:100F20008E819F8101969F838E8302C00FEF1FEFFA
:100F3000C801DF91CF911F910F910895FA01AA275F
:100F4000283051F1203181F1E8946F936E7F6E5F0C
:100F50007F4F8F4F9F4FAF4FB1E03ED0B4E03CD0BA
:100F6000670F781F891F9A1FA11D680F791F8A1F9D
:100F7000911DA11D6A0F711D811D911DA11D20D004
:100F800009F468943F912AE0269F11243019305DBE
:100F90003193DEF6CF010895462F4770405D4193AF
:100FA000B3E00FD0C9F7F6CF462F4F70405D4A33FC
:100FB00018F0495D31FD4052419302D0A9F7EACFC4
:100FC000B4E0A6959795879577956795BA95C9F7F3
:100FD00000976105710508959B01AC010A2E0694E6
:100FE0005795479537952795BA95C9F7620F731F9F
:100FF000841F951FA01D08952F923F924F925F92DC
:101000006F927F928F929F92AF92BF92CF92DF9218
:10101000EF92FF920F931F93CF93DF93CDB7DEB77D
:10102000CA1BDB0B0FB6F894DEBF0FBECDBF099411
:101030002A88398848885F846E847D848C849B8468
:10104000AA84B984C884DF80EE80FD800C811B8176
:10105000AA81B981CE0FD11D0FB6F894DEBF0FBEA5
:0A106000CDBFED010895F894FFCF15
:10106A006C69637A62613A20256400507265737311
:10107A0065643A20256400507265737365643A208A
:10108A00256300507265737365643A2025632025D1
:10109A006420256400203738392D3435362B313217
:0610AA0033432A30233D10
:00000001FF
