:100000000C942A000C943F000C943F000C943F0089
:100010000C943F000C943F000C943F000C943F0064
:100020000C943F000C943F000C943F000C943F0054
:100030000C943F000C943F000C943F000C943F0044
:100040000C943F000C943F000C943F000C943F0034
:100050000C943F0011241FBECFE5D4E0DEBFCDBF1E
:1000600010E0A0E6B0E0E4E2FEE002C005900D92F0
:10007000A23AB107D9F70E9413010C9410070C940F
:10008000000080FF02C0C29A01C0C29881FF02C076
:10009000C39A01C0C39882FF02C0C49A01C0C49829
:1000A00083FF02C0C59A0895C59808951F93182F1D
:1000B000C19A82958F700E944100C198C19A812F88
:1000C0000E944100C19880E18A95F1F71F9108953F
:1000D000C0980E9456000895C09A0E945600089544
:1000E000CF93DF93EC0103C021960E946C008881BE
:1000F0008823D1F7DF91CF9108956295660F660F3F
:10010000607C680F862F80680E946800089581E0F7
:100110000E94680084EF91E00197F1F7089582E072
:100120000E94680084EF91E00197F1F708951F9312
:10013000CF93DF93BA9ABB9ABC9ABD9AB99AB89AF0
:1001400086EA9EE00197F1F7C098C19810E0C2EEF0
:10015000D4E0C19A83E00E944100C198CE0101978A
:10016000F1F71F5F1330A9F7C19A82E00E944100A6
:10017000C1988AEF90E00197F1F788E20E94680049
:1001800088E00E94680081E00E94680084EF91E0AE
:100190000197F1F786E00E9468008CE00E946800F9
:1001A000DF91CF911F91089540E050E0A1E0B0E0D1
:1001B00025B34C5F5F4FCD01042E02C0880F991FFD
:1001C0000A94E2F744505040E82F8095822385BB83
:1001D00020E030E083B390E0022E02C09595879531
:1001E0000A94E2F7B9016F5F7F4F80FD0CC088E889
:1001F00093E10197F1F79A01220F331F220F331F6A
:10020000260F371F0EC09B016430710519F785B3A7
:10021000E82BE5BB4F5F5F4F4430510549F620E0C6
:1002200030E0C90108952F923F924F925F926F92F2
:100230007F928F929F92AF92BF92CF92DF92EF9276
:10024000FF920F931F93DF93CF93CDB7DEB76597E0
:100250000FB6F894DEBF0FBECDBF40E050E061E0C6
:1002600070E034B3CB01042E02C0880F991F0A94AA
:10027000E2F7282F2095232324BB25B3822B85BBAF
:1002800024B34C5F5F4FCB01042E02C0880F991F2F
:100290000A94E2F7282B24BB25B3822B85BB43505D
:1002A000504044305105E9F60E9497000E948F00AB
:1002B0000FEF1FEFCC24DD24AA24BB24662477246F
:1002C0007E010894E11CF11CFBE68F2EF0E09F2ECE
:1002D000E5E84E2EE0E05E2E78EA272E71E6372E16
:1002E0000E94870080E060E00E947D0000D000D086
:1002F00000D0EDB7FEB73196ADB7BEB71296FC92FF
:10030000EE92119780E690E09383828375826482F7
:100310000E943804ADB7BEB716960FB6F894BEBFAC
:100320000FBEADBFC7010E94700080E061E00E9477
:100330007D000E94D400FC01009709F48DC2EF56A5
:10034000FF4F8081853309F40CC18633A8F48233D2
:1003500009F45BC0833348F48D3209F426C281333B
:10036000F1F08B3209F06DC20AC2833309F483C005
:10037000843309F066C2B5C0883309F494C1893367
:1003800038F4863309F423C1873309F05AC255C1C2
:10039000893309F4BEC18D3309F053C21DC2BFEFCA
:1003A0000F3F1B07D1F400D000D000D0EDB7FEB74F
:1003B0003196ADB7BEB71296FC92EE92119793822A
:1003C000828281E090E0958384830E94380401E07A
:1003D00010E061E0C62ED12C2CC200D000D000D09D
:1003E000EDB7FEB73196ADB7BEB71296FC92EE925E
:1003F00011979382828281E090E0958384830E94AA
:10040000380451E0A52EB12C14C2BFEF0F3F1B07DB
:10041000D1F400D000D000D0EDB7FEB73196ADB723
:10042000BEB71296FC92EE9211979382828282E07E
:1004300090E0958384830E94380401E010E042E05C
:10044000C42ED12CF6C100D000D000D0EDB7FEB73D
:100450003196ADB7BEB71296FC92EE921197938289
:10046000828282E090E0958384830E94380432E0A7
:10047000A32EB12CDEC1BFEF0F3F1B07D1F400D07C
:1004800000D000D0EDB7FEB73196ADB7BEB712962B
:10049000FC92EE9211979382828283E090E09583A2
:1004A00084830E94380401E010E023E0C22ED12CA6
:1004B000C0C100D000D000D0EDB7FEB73196ADB7C7
:1004C000BEB71296FC92EE9211979382828283E0DD
:1004D00090E0958384830E94380493E0A92EB12C88
:1004E000A8C1BFEF0F3F1B0721F500D000D000D0FF
:1004F000EDB7FEB73196ADB7BEB71296FC92EE924D
:10050000119787E790E093838283A4E0B0E0B583FE
:10051000A4830E94380401E010E084E0C82ED12CAE
:100520008DB79EB706960FB6F8949EBF0FBE8DBFCF
:1005300088C100D000D000D0EDB7FEB73196ADB77E
:10054000BEB71296FC92EE9211979382828284E05B
:1005500090E0958384830E943804B4E0AB2EB12CE4
:1005600068C1BFEF0F3F1B07D1F400D000D000D00F
:10057000EDB7FEB73196ADB7BEB71296FC92EE92CC
:1005800011979382828285E090E0958384830E9414
:10059000380401E010E0A5E0CA2ED12C4AC100D0F9
:1005A00000D000D0EDB7FEB73196ADB7BEB712960A
:1005B000FC92EE9211979382828285E090E095837F
:1005C00084830E943804F5E0AF2EB12C32C1BFEF16
:1005D0000F3F1B07D1F400D000D000D0EDB7FEB71D
:1005E0003196ADB7BEB71296FC92EE9211979382F8
:1005F000828286E090E0958384830E94380401E043
:1006000010E0E6E0CE2ED12C14C100D000D000D0F6
:10061000EDB7FEB73196ADB7BEB71296FC92EE922B
:1006200011979382828286E090E0958384830E9472
:10063000380476E0A72EB12CFCC0BFEF0F3F1B079C
:10064000D1F400D000D000D0EDB7FEB73196ADB7F1
:10065000BEB71296FC92EE9211979382828287E047
:1006600090E0958384830E94380401E010E067E005
:10067000C62ED12CDEC000D000D000D0EDB7FEB722
:100680003196ADB7BEB71296FC92EE921197938257
:10069000828287E090E0958384830E94380457E04B
:1006A000A52EB12CC6C0BFEF0F3F1B07D1F400D061
:1006B00000D000D0EDB7FEB73196ADB7BEB71296F9
:1006C000FC92EE9211979382828288E090E095836B
:1006D00084830E94380401E010E048E0C42ED12C4D
:1006E000A8C000D000D000D0EDB7FEB73196ADB7AE
:1006F000BEB71296FC92EE9211979382828288E0A6
:1007000090E0958384830E94380438E0A32EB12CB6
:1007100090C0BFEF0F3F1B07D1F400D000D000D036
:10072000EDB7FEB73196ADB7BEB71296FC92EE921A
:1007300011979382828289E090E0958384830E945E
:10074000380401E010E029E0C22ED12C72C000D0A4
:1007500000D000D0EDB7FEB73196ADB7BEB7129658
:10076000FC92EE9211979382828289E090E09583C9
:1007700084830E94380499E0A92EB12C5AC000D07D
:1007800000D000D0EDB7FEB73196ADB7BEB7129628
:10079000FC92EE921197538242828BE290E0958315
:1007A00084830E9438049BE215C000D000D000D0A2
:1007B000EDB7FEB73196ADB7BEB71296FC92EE928A
:1007C0001197538242828DE290E0958384830E9448
:1007D00038049DE29D8B2DC0BD89BB3239F41016C3
:1007E00011066CF435016C0C7D1C09C08D898D32AD
:1007F00031F4101611061CF436016A187B0800D07B
:1008000000D000D0EDB7FEB73196ADB7BEB71296A7
:10081000FC92EE921197538242828DE390E0958391
:1008200084830E9438040FEF1FEFCC24DD24AA2418
:10083000BB24ADB7BEB716960FB6F894BEBF0FBEB9
:10084000ADBFC7010E94700088E893E1E9E1F0E0E4
:100850003197F1F70197D1F7C1010197F1F7989B13
:10086000FBCF999BF9CF9A9BF7CF9B9939CDF4CFCA
:10087000AEE0B0E0EEE3F4E00C94E7060D891E89EB
:1008800086E08C831A8309838FEF9FE79E838D8395
:100890009E01275E3F4FCE0101966F89788DA90199
:1008A0000E945C042F813885020F131FF80110820B
:1008B0002E96E4E00C940307ABE0B0E0E2E6F4E04F
:1008C0000C94D9063C012B015A01FC0117821682B7
:1008D000838181FD03C06FEF7FEFC6C19AE0892E4F
:1008E0001E010894211C311CF3012381F20123FD18
:1008F000859123FF81912F01882309F4B2C18532AC
:1009000039F423FD859123FF81912F01853229F44C
:1009100090E0B3010E944F06E7CF982FFF24EE240A
:100920009924FFE1FF15D0F09B3269F09C3228F446
:10093000903259F0933291F40EC09D3249F09033C9
:1009400069F441E024C052E0F52A84E0F82A28C086
:1009500098E0F92A25C0E0E1FE2A22C0F7FC29C070
:10096000892F80538A3070F4F6FE05C0989C902C35
:100970001124980E15C0E89CE02C1124E80EF0E23A
:10098000FF2A0EC09E3229F4F6FC6BC140E4F42A23
:1009900007C09C3619F450E8F52A02C0983649F48D
:1009A000F20123FD959123FF91912F01992309F0E5
:1009B000B8CF892F8554833018F08052833038F4B3
:1009C00044E050E0A40EB51E5FE359830FC0933698
:1009D00031F0933779F0933509F056C020C0F50116
:1009E0008081898342E050E0A40EB51E610101E0E0
:1009F00010E012C0F501C080D180F6FC03C06FEF9B
:100A00007FEF02C0692D70E042E050E0A40EB51EF9
:100A1000C6010E9444068C015FE7F52214C0F5016F
:100A2000C080D180F6FC03C06FEF7FEF02C0692D5C
:100A300070E042E050E0A40EB51EC6010E943906E7
:100A40008C0150E8F52AF3FE07C01AC080E290E05E
:100A5000B3010E944F06EA948E2D90E00817190703
:100A6000A8F30EC0F601F7FC8591F7FE81916F01A6
:100A700090E0B3010E944F06E110EA94015010404B
:100A80000115110579F7EAC0943611F0993669F528
:100A9000F7FE08C0F501208131814281538184E055
:100AA00090E00AC0F501808191819C01442737FDC7
:100AB0004095542F82E090E0A80EB91E9FE6F922DF
:100AC00057FF09C050954095309521953F4F4F4FA6
:100AD0005F4FE0E8FE2ACA01B901A1012AE030E037
:100AE0000E947B06D82ED21840C0953729F41F2DBE
:100AF0001F7E2AE030E01DC01F2D197F9F3661F058
:100B0000903720F4983509F0ACC00FC0903739F019
:100B1000983709F0A6C004C028E030E00AC0106190
:100B200014FD146020E130E004C014FD166020E1E3
:100B300032E017FF08C0F5016081718182819381E5
:100B400044E050E008C0F50180819181BC0180E063
:100B500090E042E050E0A40EB51EA1010E947B0689
:100B6000D82ED2188FE7F82EF122F6FE0BC05EEFDA
:100B7000F522D91438F4F4FE07C0F2FC05C08FEE5C
:100B8000F82202C01D2D01C0192DF4FE0DC0FE017A
:100B9000ED0DF11D8081803319F499EEF92208C022
:100BA0001F5FF2FE05C003C08F2D867809F01F5F1E
:100BB0000F2DF3FC14C0F0FE0FC01E1510F09D2C7D
:100BC0000BC09D2C9E0C911A1E2D06C080E290E059
:100BD000B3010E944F061F5F1E15C0F304C01E150F
:100BE00010F4E11A01C0EE2404FF0FC080E390E08E
:100BF000B3010E944F0602FF1DC001FD03C088E73C
:100C000090E00EC088E590E00BC0802F867891F0D0
:100C100001FF02C08BE201C080E2F7FC8DE290E0B0
:100C2000B3010E944F0606C080E390E0B3010E942A
:100C30004F069A94D914C0F3DA94F101ED0DF11D29
:100C4000808190E0B3010E944F06DD20A9F706C025
:100C500080E290E0B3010E944F06EA94EE20C1F7D3
:100C600043CEF30166817781CB012B96E2E10C94B0
:100C7000F506FC010590615070400110D8F7809591
:100C800090958E0F9F1F0895FC0161507040019058
:100C90000110D8F7809590958E0F9F1F08950F93A0
:100CA0001F93CF93DF938C01EB018B8181FF1BC0DE
:100CB00082FF0DC02E813F818C819D8128173907CD
:100CC00064F4E881F9810193F983E88306C0E8853B
:100CD000F985802F0995892B31F48E819F810196AA
:100CE0009F838E8302C00FEF1FEFC801DF91CF916A
:100CF0001F910F910895FA01AA27283051F1203150
:100D000081F1E8946F936E7F6E5F7F4F8F4F9F4F9F
:100D1000AF4FB1E03ED0B4E03CD0670F781F891FE1
:100D20009A1FA11D680F791F8A1F911DA11D6A0FAF
:100D3000711D811D911DA11D20D009F468943F9162
:100D40002AE0269F11243019305D3193DEF6CF0161
:100D50000895462F4770405D4193B3E00FD0C9F727
:100D6000F6CF462F4F70405D4A3318F0495D31FD94
:100D70004052419302D0A9F7EACFB4E0A6959795E7
:100D8000879577956795BA95C9F7009761057105BD
:100D900008959B01AC010A2E069457954795379507
:100DA0002795BA95C9F7620F731F841F951FA01D61
:100DB00008952F923F924F925F926F927F928F92FF
:100DC0009F92AF92BF92CF92DF92EF92FF920F93DA
:100DD0001F93CF93DF93CDB7DEB7CA1BDB0B0FB6E4
:100DE000F894DEBF0FBECDBF09942A8839884888A1
:100DF0005F846E847D848C849B84AA84B984C88437
:100E0000DF80EE80FD800C811B81AA81B981CE0F2D
:100E1000D11D0FB6F894DEBF0FBECDBFED01089512
:040E2000F894FFCF74
:100E2400526573756C743A2025640050726573734F
:100E340065643A20256400507265737365642034D8
:100E44003A20256400507265737365643A20256303
:100E540000303738392D3435362B313233432A308C
:020E6400233D2C
:00000001FF
